{
  "contractName": "Ballot",
  "abi": [
    {
      "inputs": [
        {
          "internalType": "bytes32[]",
          "name": "candidatesNames",
          "type": "bytes32[]"
        }
      ],
      "stateMutability": "nonpayable",
      "type": "constructor"
    },
    {
      "inputs": [
        {
          "internalType": "uint256",
          "name": "",
          "type": "uint256"
        }
      ],
      "name": "candidates",
      "outputs": [
        {
          "internalType": "bytes32",
          "name": "name",
          "type": "bytes32"
        },
        {
          "internalType": "uint256",
          "name": "voteCount",
          "type": "uint256"
        }
      ],
      "stateMutability": "view",
      "type": "function",
      "constant": true
    },
    {
      "inputs": [],
      "name": "organiser",
      "outputs": [
        {
          "internalType": "address",
          "name": "",
          "type": "address"
        }
      ],
      "stateMutability": "view",
      "type": "function",
      "constant": true
    },
    {
      "inputs": [
        {
          "internalType": "address",
          "name": "",
          "type": "address"
        }
      ],
      "name": "voters",
      "outputs": [
        {
          "internalType": "uint256",
          "name": "vote",
          "type": "uint256"
        },
        {
          "internalType": "bool",
          "name": "voted",
          "type": "bool"
        }
      ],
      "stateMutability": "view",
      "type": "function",
      "constant": true
    },
    {
      "inputs": [
        {
          "components": [
            {
              "internalType": "uint256",
              "name": "vote",
              "type": "uint256"
            },
            {
              "internalType": "bool",
              "name": "voted",
              "type": "bool"
            }
          ],
          "internalType": "struct Ballot.Voter",
          "name": "voter",
          "type": "tuple"
        }
      ],
      "name": "checkRightToVote",
      "outputs": [
        {
          "internalType": "bool",
          "name": "",
          "type": "bool"
        }
      ],
      "stateMutability": "nonpayable",
      "type": "function"
    },
    {
      "inputs": [
        {
          "internalType": "uint256",
          "name": "choice",
          "type": "uint256"
        }
      ],
      "name": "vote",
      "outputs": [],
      "stateMutability": "nonpayable",
      "type": "function"
    },
    {
      "inputs": [],
      "name": "getWinnerId",
      "outputs": [
        {
          "internalType": "uint256",
          "name": "winningCandidateId_",
          "type": "uint256"
        }
      ],
      "stateMutability": "view",
      "type": "function",
      "constant": true
    },
    {
      "inputs": [],
      "name": "getWinner",
      "outputs": [
        {
          "internalType": "bytes32",
          "name": "winningCandidate_",
          "type": "bytes32"
        }
      ],
      "stateMutability": "view",
      "type": "function",
      "constant": true
    }
  ],
  "bytecode": "0x60806040523480156200001157600080fd5b5060405162000d5438038062000d548339818101604052810190620000379190620002da565b336000806101000a81548173ffffffffffffffffffffffffffffffffffffffff021916908373ffffffffffffffffffffffffffffffffffffffff16021790555060005b81518110156200010e5760026040518060400160405280848481518110620000a757620000a66200032b565b5b6020026020010151815260200160008152509080600181540180825580915050600190039060005260206000209060020201600090919091909150600082015181600001556020820151816001015550508080620001059062000393565b9150506200007a565b5050620003e0565b6000604051905090565b600080fd5b600080fd5b600080fd5b6000601f19601f8301169050919050565b7f4e487b7100000000000000000000000000000000000000000000000000000000600052604160045260246000fd5b6200017a826200012f565b810181811067ffffffffffffffff821117156200019c576200019b62000140565b5b80604052505050565b6000620001b162000116565b9050620001bf82826200016f565b919050565b600067ffffffffffffffff821115620001e257620001e162000140565b5b602082029050602081019050919050565b600080fd5b6000819050919050565b6200020d81620001f8565b81146200021957600080fd5b50565b6000815190506200022d8162000202565b92915050565b60006200024a6200024484620001c4565b620001a5565b9050808382526020820190506020840283018581111562000270576200026f620001f3565b5b835b818110156200029d57806200028888826200021c565b84526020840193505060208101905062000272565b5050509392505050565b600082601f830112620002bf57620002be6200012a565b5b8151620002d184826020860162000233565b91505092915050565b600060208284031215620002f357620002f262000120565b5b600082015167ffffffffffffffff81111562000314576200031362000125565b5b6200032284828501620002a7565b91505092915050565b7f4e487b7100000000000000000000000000000000000000000000000000000000600052603260045260246000fd5b7f4e487b7100000000000000000000000000000000000000000000000000000000600052601160045260246000fd5b6000819050919050565b6000620003a08262000389565b91507fffffffffffffffffffffffffffffffffffffffffffffffffffffffffffffffff8203620003d557620003d46200035a565b5b600182019050919050565b61096480620003f06000396000f3fe608060405234801561001057600080fd5b506004361061007d5760003560e01c80633477ee2e1161005b5780633477ee2e146100ec5780637e5374861461011d5780638e7ea5b21461013b578063a3ec138d146101595761007d565b80630121b93f146100825780630aea68061461009e57806312018bf2146100bc575b600080fd5b61009c60048036038101906100979190610438565b61018a565b005b6100a661029f565b6040516100b39190610474565b60405180910390f35b6100d660048036038101906100d191906105a8565b610327565b6040516100e391906105e4565b60405180910390f35b61010660048036038101906101019190610438565b610336565b604051610114929190610618565b60405180910390f35b61012561036a565b6040516101329190610682565b60405180910390f35b61014361038e565b604051610150919061069d565b60405180910390f35b610173600480360381019061016e91906106e4565b6103c2565b604051610181929190610711565b60405180910390f35b6000600160003373ffffffffffffffffffffffffffffffffffffffff1673ffffffffffffffffffffffffffffffffffffffff168152602001908152602001600020905060003073ffffffffffffffffffffffffffffffffffffffff166312018bf2836040518263ffffffff1660e01b815260040161020891906107f7565b6020604051808303816000875af1158015610227573d6000803e3d6000fd5b505050506040513d601f19601f8201168201806040525081019061024b9190610827565b9050801561029a5760016002848154811061026957610268610854565b5b9060005260206000209060020201600101600082825461028991906108b2565b925050819055508282600001819055505b505050565b6000806000905060005b6002805490508110156103225781600282815481106102cb576102ca610854565b5b906000526020600020906002020160010154111561030f57600281815481106102f7576102f6610854565b5b90600052602060002090600202016001015491508092505b808061031a906108e6565b9150506102a9565b505090565b60008160200151159050919050565b6002818154811061034657600080fd5b90600052602060002090600202016000915090508060000154908060010154905082565b60008054906101000a900473ffffffffffffffffffffffffffffffffffffffff1681565b6000600261039a61029f565b815481106103ab576103aa610854565b5b906000526020600020906002020160000154905090565b60016020528060005260406000206000915090508060000154908060010160009054906101000a900460ff16905082565b6000604051905090565b600080fd5b6000819050919050565b61041581610402565b811461042057600080fd5b50565b6000813590506104328161040c565b92915050565b60006020828403121561044e5761044d6103fd565b5b600061045c84828501610423565b91505092915050565b61046e81610402565b82525050565b60006020820190506104896000830184610465565b92915050565b600080fd5b6000601f19601f8301169050919050565b7f4e487b7100000000000000000000000000000000000000000000000000000000600052604160045260246000fd5b6104dd82610494565b810181811067ffffffffffffffff821117156104fc576104fb6104a5565b5b80604052505050565b600061050f6103f3565b905061051b82826104d4565b919050565b60008115159050919050565b61053581610520565b811461054057600080fd5b50565b6000813590506105528161052c565b92915050565b60006040828403121561056e5761056d61048f565b5b6105786040610505565b9050600061058884828501610423565b600083015250602061059c84828501610543565b60208301525092915050565b6000604082840312156105be576105bd6103fd565b5b60006105cc84828501610558565b91505092915050565b6105de81610520565b82525050565b60006020820190506105f960008301846105d5565b92915050565b6000819050919050565b610612816105ff565b82525050565b600060408201905061062d6000830185610609565b61063a6020830184610465565b9392505050565b600073ffffffffffffffffffffffffffffffffffffffff82169050919050565b600061066c82610641565b9050919050565b61067c81610661565b82525050565b60006020820190506106976000830184610673565b92915050565b60006020820190506106b26000830184610609565b92915050565b6106c181610661565b81146106cc57600080fd5b50565b6000813590506106de816106b8565b92915050565b6000602082840312156106fa576106f96103fd565b5b6000610708848285016106cf565b91505092915050565b60006040820190506107266000830185610465565b61073360208301846105d5565b9392505050565b60008160001c9050919050565b6000819050919050565b600061076461075f8361073a565b610747565b9050919050565b61077481610402565b82525050565b600060ff82169050919050565b600061079a6107958361073a565b61077a565b9050919050565b6107aa81610520565b82525050565b6040820160008083015490506107c581610751565b6107d2600086018261076b565b50600183015490506107e381610787565b6107f060208601826107a1565b5050505050565b600060408201905061080c60008301846107b0565b92915050565b6000815190506108218161052c565b92915050565b60006020828403121561083d5761083c6103fd565b5b600061084b84828501610812565b91505092915050565b7f4e487b7100000000000000000000000000000000000000000000000000000000600052603260045260246000fd5b7f4e487b7100000000000000000000000000000000000000000000000000000000600052601160045260246000fd5b60006108bd82610402565b91506108c883610402565b92508282019050808211156108e0576108df610883565b5b92915050565b60006108f182610402565b91507fffffffffffffffffffffffffffffffffffffffffffffffffffffffffffffffff820361092357610922610883565b5b60018201905091905056fea2646970667358221220a4eba942ab1731baf6769d34959631150ac32bbab8d8c89c1ebf6a397dec3f3e64736f6c63430008100033",
  "immutableReferences": {},
  "source": "pragma solidity >=0.7.0 <0.9.0;\n\ncontract Ballot {\n\n  struct Voter {\n    uint vote;\n    bool voted;\n  }\n\n  struct Candidate {\n    bytes32 name;\n    uint voteCount;\n  }\n\n  address public organiser;\n\n  mapping(address => Voter) public voters;\n\n  Candidate[] public candidates;\n\n  constructor(bytes32[] memory candidatesNames) {\n    organiser = msg.sender;\n\n    // Constructs candidates\n    for (uint i = 0; i < candidatesNames.length; i++) {\n      candidates.push(Candidate({\n        name: candidatesNames[i],\n        voteCount: 0\n      }));\n    }\n  }\n\n  function checkRightToVote(Voter memory voter) external returns(bool) {\n    return !voter.voted;\n  }\n\n  function vote(uint choice) external {\n    Voter storage voter = voters[msg.sender];\n    bool hasRightToVote = this.checkRightToVote(voter);\n\n    if (hasRightToVote) {\n      candidates[choice].voteCount += 1;\n      voter.vote = choice;\n    }\n  }\n\n  function getWinnerId() public view returns(uint winningCandidateId_) {\n    uint winningVoteCount = 0;\n    for (uint p = 0; p < candidates.length; p++) {\n      if (candidates[p].voteCount > winningVoteCount) {\n        winningVoteCount = candidates[p].voteCount;\n        winningCandidateId_ = p;\n      }\n    }\n  }\n\n  function getWinner() external view returns(bytes32 winningCandidate_) {\n    winningCandidate_ = candidates[getWinnerId()].name;\n  }\n\n}",
  "sourcePath": "/Users/bartlomiejfryz/Personal/votes-counting-smart-contract/contracts/Ballot.sol",
  "compiler": {
    "name": "solc",
    "version": "0.8.16+commit.07a7930e.Emscripten.clang"
  },
  "schemaVersion": "3.4.9",
  "updatedAt": "2022-09-14T13:00:34.341Z",
  "networkType": "ethereum",
  "devdoc": {
    "kind": "dev",
    "methods": {},
    "version": 1
  },
  "userdoc": {
    "kind": "user",
    "methods": {},
    "version": 1
  }
}